:020000041000EA
:1000000000B5324B212058609868022188439860DF
:10001000D860186158612E4B002199600221596106
:100020000121F02299502B49196001219960352056
:1000300000F044F80222904214D00621196600F024
:1000400034F8196E01211966002018661A6600F04E
:100050002CF8196E196E196E052000F02FF8012189
:100060000842F9D1002199601B49196000215960AB
:100070001A491B48016001219960EB211966A021F2
:10008000196600F012F800219960164914480160C1
:100090000121996001BC002800D000471248134993
:1000A000086003C880F30888084703B5996A0420EC
:1000B0000142FBD001200142F8D103BD02B5186610
:1000C0001866FFF7F2FF186E186E02BD00000240BE
:1000D000000000180000070000035F00212200005C
:1000E000F4000018222000A00001001008ED00E03C
:1000F00000000000000000000000000074B24E7A12
:1001000000200420F7010010C3010010C5010010F9
:10011000C1010010C1010010C1010010C101001097
:10012000C1010010C1010010C1010010C701001081
:10013000C1010010C1010010C9010010CB01001065
:10014000CD010010CD010010CD010010CD01001037
:10015000CD010010CD010010CD010010CD01001027
:10016000CD010010CD010010CD010010CD01001017
:10017000CD010010CD010010CD010010CD01001007
:10018000CD010010CD010010CD010010CD010010F7
:10019000CD010010CD010010CD010010CD010010E7
:1001A000CD010010CD010010CD010010CD010010D7
:1001B000CD010010CD010010CD010010CD010010C7
:1001C00000BE00BE00BE00BE00BE00BEEFF3058054
:1001D000103800BEF2EB8871EC2006100C210610DE
:1001E0003402001090A31AE700201F49086006C8D7
:1001F00081F3088810471D48006800282FD10DA4FE
:100200000ECC002902D000F012F8F9E71849194A7B
:10021000002000E001C19142FCD1174988471749ED
:1002200088471749884700BEFDE701C901C29A42C5
:10023000FBD370470C210610C0000020802D002049
:10024000CC4D06100000042000000420CC4D061008
:10025000001004200010042000000000704709482E
:1002600004F036F80047000008ED00E0000000D080
:10027000802D0020347700209D2F0010E909001008
:100280005F2F00105756000006005250ABB360536A
:100290008CEF041006005250861C03029CEF0410E1
:1002A000060052505422A29DACEF0410050052509B
:1002B000DE65F468CC4D0610F8B5C046064807491F
:1002C000091A8B10C90FC91810B5491003D0044B77
:1002D000002B00D0984710BD802D0020802D0020DD
:1002E00000000000054B10B5002B03D00449054861
:1002F00000E000BFFFF7E2FF10BDC04600000000B5
:100300006C53002068DE041070B504000D00012855
:1003100005D0002C02D1174B9D4227D070BD154B44
:100320009942F6D1144808F09BF9144B002119604A
:10033000134A14481A50144A9950144A14495A50EE
:10034000144A8021C9009950134801F0C6FB134993
:10035000134800F090FC1349134800F0BDFC13480B
:1003600006230122124900F01DFDD2E7024808F0E1
:1003700087F9D3E7FFFF0000044500209C530020CD
:10038000A05300200420000008200000A0630020EB
:100390000C20000010200000B0730020A41B0020DF
:1003A00004770020881B0020E076002064520020A3
:1003B00000C0034010B5042000F04CFFD0231B0602
:1003C00010229A620548042105F0BCFA044B012270
:1003D0000421042000F0E2FE10BDC04668DE0410D7
:1003E000FD06001010B54C4805F07CFA4B4C00217E
:1003F000200000F06BFD0100494B180005F0A2FA47
:100400000121200000F062FD0100464B180005F0BC
:1004100099FA0221200000F059FD0100424B18001A
:1004200005F090FA0321200000F050FD01003F4B41
:10043000180005F087FA0421200000F047FD0100B4
:100440003B4B180005F07EFA0521200000F03EFD30
:100450000100384B180005F075FA0621200000F065
:1004600035FD0100344B180005F06CFA072120001F
:1004700000F02CFD0100314B180005F063FA082153
:10048000200000F023FD01002D4B180005F05AFA62
:100490000921200000F01AFD01002A4B180005F088
:1004A00051FA0A21200000F011FD0100264B18002E
:1004B00005F048FA0B21200000F008FD0100234B55
:1004C000180005F03FFA0C21200000F0FFFC0100AD
:1004D0001F4B180005F036FA0D21200000F0F6FC45
:1004E00001001C4B180005F02DFA0E21200000F031
:1004F000EDFC0100184B180005F024FA0F21200034
:1005000000F0E4FC0100154B180005F01BFA14483C
:1005100005F0E8F910BDC04690DE041064520020DA
:10052000B4DE0410C4DE0410D4DE0410E4DE0410D3
:10053000F4DE041000DF041010DF041020DF0410CC
:1005400030DF041040DF041050DF041060DF0410BF
:1005500070DF041080DF041090DF0410A0DF0410AF
:10056000ACDF041070B586B0204D280000F064FCAC
:10057000280000F051FCFFF735FF280000F0DDFCFB
:100580001B4805F0AFF9FFF72DFF0021280000F010
:10059000E0FC01AB01261E7000245C709C70DC70D6
:1005A0001C715C710199029A280000F0D9FC03AB20
:1005B0001C701C225A700399280000F0F5FC04AB53
:1005C0001C705C709C70DC701C715C719E71049975
:1005D000059A280000F0F6FC280000F0B4FC05485D
:1005E00005F080F9FFF7FEFE06B070BD64520020F2
:1005F000CCDF0410ECDF041070B5FA25AD00280044
:1006000001F045FFFFF7AEFF1C4BF82292051A6080
:100610001B4C0021200000F07CFB280001F037FF7C
:100620000221200000F084FB642001F030FF012152
:10063000200000F08CFB642001F029FF200000F076
:1006400095FB642001F023FF0E4C0021200000F0F8
:100650009EFA642001F01BFF0021200000F0D5FA73
:10066000642001F014FF0021200000F06FFA6420E4
:1006700001F00DFFFFF79EFE70BDC046C81B0020B5
:10068000E07600200477002070B504000D1C164BA6
:10069000C61830004DF0D8FB144BE258144BE35809
:1006A0009A420DD2134BE158104AA358581CA0503F
:1006B0009B00CD50A45830004DF006FB200070BDCB
:1006C0000C4AA1580C4BE058A050E150074B0021B8
:1006D000E150216801312160A158E258501CE050DE
:1006E00092008D50E458E6E7142000000820000036
:1006F00010200000042000000C20000030B585B060
:100700001A4807F0BDFC002827D1194C194D226862
:10071000636828686968121A8B4117490A604B6040
:10072000164901A800F077FC0398154B196804F0EE
:1007300056FD011C03901348FFF7A6FF01F038FF98
:1007400002000B002A606B6020686168121A8B41FE
:100750000D490A604B6005B030BD01F029FF044B24
:1007600018605960014807F0A7FCCEE7043200206A
:100770004830002050300020E01B00206452002050
:10078000C81B00209C530020E81B0020F0B583B05C
:100790000600019117000C00002507E00E4BF358EE
:1007A0001968281C04F016FD051C0134BC4208D24F
:1007B0008023DB009C42F1D2074BF258A300D158B2
:1007C000EFE7019BF81A04F07BFD011C281C04F0E4
:1007D00006FD03B0F0BDC0460C200000F8B5DE46B3
:1007E00057464E464546E0B581468A4615009B462B
:1007F0001C003CE05146404604F040FD002835D046
:100800005146301C04F048FD002801D13C002EE088
:1008100020004DE05146404604F03EFD002841D006
:100820005146301C04F02AFD002801D13C001EE096
:1008300020003DE05146404604F020FD002805D050
:100840005146301C04F028FD00280DD15146404689
:1008500004F022FD002827D05146301C04F00EFD84
:10086000002801D13C0002E0200021E03C00802370
:10087000DB009C421AD25B46E61A22003100484651
:10088000FFF784FF8046671C711C3A004846FFF75B
:100890007DFF061C012DBDD0022DCBD0002DA9D08F
:1008A0003C00E4E73C00E2E73C00E0E70120404296
:1008B000F0BCBB46B246A946A046F8BDF0B583B031
:1008C0000400009101921D00394807F0D9FB00286F
:1008D0002ED1384B38491A685B680E684F68921BF6
:1008E000BB4136490A604B602368354A126893421F
:1008F0005BD0334A13600523019A00992000FFF76B
:100900006DFF0100431C4DD0089BC6188023DB00FF
:100910009E4216D2A84218D9451B2A4805F012F863
:10092000294B1A685B68711B284805F00BF819E021
:1009300001F03EFE1F4B186059601D4807F0BCFBDC
:10094000C7E7234804F0CEFF2FE00025E5E7214B61
:10095000E358186804F0DCFC02000B001E4804F0A9
:10096000F1FF0135AE4208D38023DB009D42EED279
:10097000184BE258AB00D058ECE70A2004F04CFFCB
:1009800001F016FE02000B000B490A604B6009499A
:1009900008684968121A8B4110490A604B60104878
:1009A00004F0D0FF0F4804F09DFF03B0F0BDC04637
:1009B000003200203830002040300020D01B0020C2
:1009C0000845002048E00410E01B002064E004100B
:1009D00008E004100C20000080E00410D81B002068
:1009E00088E00410A4E0041000B583B004F0B6FF62
:1009F0000121022000F060FB0121032000F05CFBDC
:100A00000121002000F058FB0749084807F004FBCB
:100A1000FFF7F2FD064880235B000093E03B0022D5
:100A20000449FFF74BFFF5E740420F0000C00340C9
:100A30009C5300200AD7A33B10B502490120FFF7C1
:100A400063FC10BDFFFF000010B5C046C046C046A5
:100A5000426801239340D0221206936101200021B5
:100A600001F008FDC046C046C04610BD10B5C046E6
:100A7000C046C046426801239340D022120653610B
:100A80000120002101F0F6FCC046C046C04610BD62
:100A900010B582B004006B46D9710068124907F0A6
:100AA000BBFA21680B6807225340C8321A408023E2
:100AB0005B010B431A600520002101F0DBFC2000E4
:100AC000FFF7C2FF206801226B46D91D4DF064F983
:100AD0002000FFF7CBFF6B46DA796168034804F02A
:100AE00031FF02B010BDC04640420F00B8E0041014
:100AF00010B50021FFF7CCFF10BD000010B50400B9
:100B0000080021606260A360029BE3600E4907F069
:100B100083FAA068012100F0CFFAE068012100F01B
:100B2000CBFA606800F096FB6268012319009140DF
:100B3000D0221206516261688B4053612000FFF79A
:100B4000D7FF200010BDC04640420F00026A0123BB
:100B50009340012903D1D022120653617047D0225D
:100B600012069361FAE710B502680123190091405B
:100B7000D0221206916141681C008C40946181680A
:100B80001C008C409461C1688B40936110BD70B5AE
:100B900005000C00FFF7E7FF022C1BD00AD8002C41
:100BA00011D0012C15D16A6801239340D02212067E
:100BB00053610EE0032C0CD1EA6801239340D0224C
:100BC0001206536105E02A6801239340D0221206E1
:100BD000536170BDAA6801239340D022120653616D
:100BE000F7E710B50269012319009140D0221206DF
:100BF000916141691C008C40946181691C008C40AA
:100C00009461C1698B40936110BD70B505000C0003
:100C1000FFF7E7FF022C1BD00AD8002C11D0012CC3
:100C200015D16A6901239340D022120653610EE068
:100C3000032C0CD1EA6901239340D02212065361A0
:100C400005E02A6901239340D0221206536170BD4A
:100C5000AA6901239340D02212065361F7E710B529
:100C60000C00080000F0F6FA0123A340D02212067F
:100C70005362936110BD70B504000D0003000A00BB
:100C800043CA43C343CA43C343CA43C3296820007A
:100C9000FFF7E5FF69682000FFF7E1FFA968200082
:100CA000FFF7DDFFE9682000FFF7D9FF2969200081
:100CB000FFF7D5FF69692000FFF7D1FFA969200080
:100CC000FFF7CDFFE9692000FFF7C9FF296A20007F
:100CD000FFF7C5FF200070BD30B583B005000C00E4
:100CE00009686268A368E06800902800FFF706FFC3
:100CF000216822696369A469280010300094FFF715
:100D0000FDFE00232022AB540132AB54280003B077
:100D100030BD10B52024035D0E2293430355F132FC
:100D2000114049001943C9B20155FFF7B1FE10BD8A
:100D300010B52024025D3F2313400355FF221140CC
:100D400089011943C9B20155FFF7A2FE10BD10B5C4
:100D50002024035D302293430355CF321140090113
:100D60001943C9B20155FFF793FE10BD10B52123F9
:100D7000C15C40229143C1541143C9B2C1541030E7
:100D8000FFF786FE10BD0000012800D07047034B1E
:100D90009942FBD1024BFF221A71F7E7FFFF0000D7
:100DA000D44D002070B504004020207040306070A9
:100DB000A270E37061600C4BA3601823E360802392
:100DC0001B042361094B636100252576200019303F
:100DD0000422002104F086FB6577A577E5772023C0
:100DE0000A22E254200070BD6F1283406F12033557
:100DF000827801239340D02212069361C046C046F8
:100E0000C0467047C046C046C04682780123934022
:100E1000D02212065361704770B50500C3780124D3
:100E200022009A40D0263606B2610A2001F02FFB3C
:100E3000EB789C40746170BD70B50400807800F060
:100E400009FAA37801252A009A40D0263606726254
:100E50002000FFF7D7FFE07800F0FCF9E3789D4031
:100E600075622000FFF7D8FF6068024907F0D4F8E8
:100E700070BDC046002D310110B50400406808491E
:100E800007F0CAF861680B688722534048321A405D
:100E900080235B010B431A60C046C046C04610BDAC
:100EA000002D3101F8B504000D0016001F00FFF7FA
:100EB000E3FF2000FFF79CFF60683B003200290041
:100EC0004CF082FF2000FFF79DFFF8BD30B585B0E4
:100ED000040000256B469D8103780F220A401343CE
:100EE0006A46137302AA1580022303A9FFF7DAFFEB
:100EF00001A90D806B461D8002236A462000FFF782
:100F0000D1FF237E002B03D16B46187805B030BD8E
:100F10006B465878FAE710B582B043780F240C403E
:100F2000234369460B714A7100236A460B800233E2
:100F300001A9FFF7B7FF02B010BD10B5FF220221D3
:100F4000FFF7E9FF10BD10B502220321FFF7E3FF11
:100F500010BD10B503220A400421FFF7DCFF10BDCD
:100F600000B583B0009101926B461B789B015BB288
:100F70006A465278520113435BB26A469278120174
:100F800013435BB26A46D278D20013435BB26A461F
:100F9000127952001343DBB26A4652791A43052193
:100FA000FFF7B9FF03B000BD00B583B001AA1180FF
:100FB00013785B0152781A43D2B20721FFF7ABFFD7
:100FC00003B000BD00B583B0009101926B461A7862
:100FD000D20152B25B789B011A4352B26B469B78A6
:100FE0005B011A4352B26B46DB78DB001A4352B204
:100FF0006B461B799B001A4352B26B465B795B00D0
:101000001A43D2B26B469B791A4303760821FFF745
:1010100082FF03B000BD70B505000C00FF23037113
:101020000B7E002B1AD103330A0019321D31200028
:10103000FFF738FF637E1B04A27E12021343E27E99
:1010400013432B60286803021AD4646904F03EF944
:10105000211C04F0DAF8A860280070BD04230A00FF
:1010600019321D312000FFF71DFF637E2B71A37E17
:101070001B04E27E12021343227F13432B60E1E73D
:10108000C3432B60404228600002000A2860646964
:1010900004F01CF9211C04F0B8F880231B069C46C0
:1010A0006044A860D8E7000010B502490120FFF7AE
:1010B0006BFE10BDFFFF000010B58300084A944688
:1010C00063441A68402462408034144080225201F4
:1010D00013431C60C000034B9C466044416010BD3C
:1010E00004C001400040014070B50400D0231B063D
:1010F0001D680D4BAA00D358002B0AD0002803D03E
:10110000094BAD00EC5070BD08490D2000F028FBE4
:10111000F6E70028F7D0044BAD00E8500349002261
:101120000D2000F015FAEEE7984D0020BD110010DB
:10113000072303409B00C00899403C308000014BCE
:10114000C150704700400140F8B507000C00160080
:101150001D00FFF7EDFFFB089B00ED18072038404E
:1011600080008440002E04D080239B012B431C6010
:10117000F8BDC0239B012B431C60F9E710B5D023B9
:101180001B061B68002B03D0024BFFF7DDFF10BDD1
:10119000014BFAE7304101400041014070B51400B5
:1011A0001D00FFF7EBFF2800FFF79EFF002C00D18A
:1011B00070BD01210D2000F077F9F9E7F0B5D646B2
:1011C0004F464646C0B5D0231B061F681D4BBA00CC
:1011D000D3589846002F03D01B4B9946002623E096
:1011E0001A4B9946FAE724090135002C1BD033002D
:1011F0000833AB4217D90F231A00224092462342EC
:10120000F1D0134BBA00D2580123AB401342EAD1BC
:1012100051462800FFF78CFF4346002BE3D0514690
:101220002800C047DFE708361D2E06D8F30808332C
:101230009B004A469C583500D7E7E0BCBA46B14609
:10124000A846F0BD984D00203041014000410140CA
:10125000BC73002010B501238340D0221206936294
:1012600093610521FFF728FF10BD0000034B1B68A9
:1012700002201840431E9841C0B2704700C006408B
:10128000EFF3108072B6034B1B68002BFBD0BFF34B
:101290005F8F70472C0100D0BFF35F8F024B00229D
:1012A0001A6080F3108870472C0100D0F8B5060052
:1012B0000C001500FFF7E4FFE308F718F15C0722C4
:1012C0002240012393400B4205D1DBB20B433B701C
:1012D000FFF7E2FFF8BD2100280001F0DBFEF0B5CA
:1012E00083B00600019114001F00FFF7C9FF00E062
:1012F0000134BC420CD8E308F518F35C0721214007
:1013000001228A401A42F3D1D2B21A432A7001E074
:1013100001246442FFF7C0FF002C02DB200003B071
:10132000F0BD019B002BF9D0089801F0B3FE00003E
:10133000002307E0054A9A189200BFF35F8F00214F
:10134000116001331F2BF5D97047C04640000034AF
:10135000054A1078431CDBB21370172B02D9130017
:1013600010221A707047C046F01B002010B582B0E2
:101370000100054C054B00931F2318222000FFF7A6
:10138000AEFF02B010BDC046A84D0020D0E0041052
:10139000074B9B68103080001950BFF35F8FBFF37D
:1013A0005F8F044B0021196082F310887047C0469C
:1013B00000ED00E0240100D010B50388DA0A1C2AF1
:1013C00005D15B055B1502335B00C01810BD034BF4
:1013D000034A0448B12101F0C5FDC046ECE0041009
:1013E00064E3041004E1041010B5091A0B1F0A4A43
:1013F00088180A4A904208D8C90706D45B105B05D2
:101400005B0D0748184380B210BD064B064A0748DB
:10141000A32101F0A7FDC046FC070000FE0F00005D
:1014200000E0FFFF40E1041058E3041004E1041061
:1014300010B5091A04394A08090B08D14905490DA4
:10144000064B0B430380064B1343438010BD054BF3
:10145000054A0648AB2101F085FDC04600F0FFFFBC
:1014600000F8FFFF70E104102CE3041004E1041005
:1014700001238340034A10681840431E9841C0B2BC
:101480007047C04600E100E0002904D0034B18601B
:10149000034B18607047034B1860FBE780E200E0E5
:1014A00000E100E080E100E010B501238340180076
:1014B000FFF7EAFF10BD000001238340014A1360DB
:1014C0007047C04600E200E0024B9B68103080008D
:1014D000C058704700ED00E010B5FFF7F5FF002899
:1014E00005D0054BC01A2F2803D8012010BD0020BD
:1014F000FCE70020FAE7C046F41B002070B50400AA
:101500000D00EFF3108672B60C4B1B68002BFBD05E
:10151000BFF35F8F2000FFF7D7FF094B984201D040
:10152000A84205D1320029002000FFF731FF70BD2D
:10153000044B054A0548862101F014FD240100D022
:10154000CD01001080E104108CE3041004E10410CC
:10155000F0B5DE4657464E464546E0B589B0814671
:1015600001911500EFF3108A72B66D4B1B68002BCA
:10157000FBD0BFF35F8F6B4B00269E57002E41DBE5
:101580007400A419A400684824180622A256654BCA
:101590001A70664B9A684B4610339B00D358984696
:1015A0001F00181A2F2839D9614B984530D105AF43
:1015B000604B3B80604973009B46981980005A4BF2
:1015C000984640440230FFF70FFF78805B4BBB80AA
:1015D000FF23BB71FD71019B079333005B449B00AC
:1015E000434407CF07C301231C43A046524641464C
:1015F0004846FFF7CDFE09B0F0BCBB46B246A9464F
:10160000A046F0BD4E4B4F4A4F48D72101F0AAFCEF
:101610004E4B4C4A4C48DE2101F0A4FC01380C2111
:1016200002F0AAFE002912D101239F43BB463B00D2
:101630000027DA79AA4211D90621595600290CDB74
:101640004A005218920038491F008B18F1E7404BAE
:101650003C4A3D48EA2101F085FC1F00002F2ED0B6
:1016600005AB3C4A1A80813A5A800623FB56029306
:10167000002B17DA384805AB9B469880029A9A717E
:10168000DD71019A0792381D2100FFF7ADFEB88089
:10169000BE71254B7200921992009B185A4613CACC
:1016A00013C3A3E7381DFFF787FE01007000801900
:1016B00080001D4BC0180430FFF796FEDBE705AF36
:1016C0001C4B3B801C49730002939B199B00164ADC
:1016D00090461A0042440392901CFFF785FE7880E2
:1016E000039A101D5946FFF77FFEB8801B4B5A46E0
:1016F0004146521A524153431B0DBB71FD71019A71
:101700000792029B9B199B00434407CF07C3114BD1
:101710005A461380813B538001231C43A04665E752
:10172000240100D02D770020F41B002000ED00E004
:10173000CD01001000A1FFFF241C002001BDFFFF10
:10174000B8E1041074E3041004E10410E0E10410B3
:1017500008E204100148000001BD0000AAAA000030
:10176000F0B5CE46474680B583B006000D00EFF3D6
:10177000108872B64F4B1B68002BFBD0BFF35F8FF6
:101780004D4B9A6834001034A300D7584B4B9F42FE
:1017900007D0AF4200D18BE00197494BFB1A2F2BAA
:1017A00009D9424639003000FFF7F2FD03B0C0BC52
:1017B000B946B046F0BD3000FFF75AFE8146002121
:1017C0003000FFF771FEBFF35F8FEFF30581002953
:1017D00001D08C4211D10123019C9C430020A368BD
:1017E000AB4212D00622A256002A0DDB53009B18F2
:1017F0009B00334A2000D418F1E7324B324A36219D
:101800003248FF3101F0AEFB2000AB4249D1062542
:101810006557002D2BDB2A4B6A00521992009B184A
:101820009A68A260DA79E2719B795BB2A371002BAE
:101830000FDA2748A080224B6A00521992009B18A9
:10184000244A11789971157049463000FFF72CFE33
:10185000A7E7680040198000194BC0180430FFF753
:10186000ABFD0100231D1800FFF7BEFDE2E70029D4
:1018700012D100280ED0FF238371174B83801549A6
:101880000B78A3710E4A154BA41A644163431B0DD8
:101890000B70D9E7094FF2E71149201DFFF7C8FD8A
:1018A000D2E7104B084A6A210848FF3101F05AFB81
:1018B000024F76E7240100D000ED00E0CD010010DA
:1018C000F41B00207CE2041044E3041004E1041043
:1018D00001BD00002D77002001BDFFFFAAAA000076
:1018E0002E1C0020B0E2041070B5012202432E4BE2
:1018F000D31A2F2B28D8EFF30583002B2BD0EFF32F
:10190000108C72B6294909680029FBD0BFF35F8F9C
:10191000254C274905002D1B6D416943090D4CB22B
:10192000244989689B00C95891421BD00021032992
:1019300032D81D4B4A00521892009B189B795BB21B
:10194000A3421FD00131F2E71B4B1C4AC7211C48A0
:10195000490001F007FB1B4B184A92211848FF3140
:1019600001F000FB134A92681749D150174B1A78BF
:1019700082711C70BFF35F8F0C4B00221A608CF3D6
:10198000108870BD084B4A005518AD005D19FF2640
:10199000AE710F4AAA80E9E70E4B084AD1210848E8
:1019A000490001F0DFFAC046F41B0020240100D0FA
:1019B000AAAA000000ED00E0B8E2041010E3041051
:1019C00004E10410E0E20410CD0100102D770020A6
:1019D00001BDFFFFECE204100022044B02E00449C9
:1019E00002C30132072AFAD97047C04600E400E07A
:1019F0008080808010B582B00100074C074B0093B7
:101A0000052300222000FFF76AFC002801DB1F23CA
:101A1000181A02B010BDC04633770020F4E204105B
:101A2000024B9C46614489000160704740000034CD
:101A300010B5002B02DB0260436010BD024B034A6D
:101A400003483F2101F08EFAA8E30410B8E4041023
:101A5000C4E3041070B582B0060014001D00FA2221
:101A6000920000230698002103F092FB02000B0075
:101A700012196B41002B09DB6846FFF7D9FF009A6A
:101A8000019B32607360300002B070BD012252428F
:101A9000004BF1E7FFFFFF7F10B582B0040000F0BC
:101AA00087FD02000B006846FFF7C2FF009A019B0A
:101AB00022606360200002B010BD30B585B0040024
:101AC0000D0002A8FFF7E8FF029A039B0095200093
:101AD000FFF7C0FF200005B030BD10B50400FFF7D0
:101AE00037FC01002000FFF79BFFFF232371BFF3AA
:101AF0005F8F10BD10B50400FFF72AFC0100200025
:101B0000FFF78EFFFF23237100236371BFF35F8F05
:101B100010BD0000034B9C46614489000160BFF387
:101B20005F8F70474000003410B504000120FFF7BC
:101B30001DFC01002000FFF7EDFF10BD084B5B6AA4
:101B4000994209D8064A926A824207D2994201D044
:101B5000012002E0002000E0002070470120FCE7A7
:101B60000040054010B500290AD003681B7B8B425A
:101B700006D38068054B9C4661440901401810BD9E
:101B8000034B044A04483C2101F0ECF9FFFFFF0F2E
:101B9000D0E40410F4E70410F4E40410F8B50400F1
:101BA0001700FFF7DFFF0668456839002000FFF7E0
:101BB000D9FF026843680120AB4201D802D000205F
:101BC000C0B2F8BDB242FBD8F9E7000010B5002B57
:101BD00002DB0260436010BD024B034A03483F2111
:101BE00001F0C0F9A8E30410C0E70410C4E3041036
:101BF00010B582B004000498059912184B41002BCF
:101C000009DB6846FFF7E2FF009A019B22606360F0
:101C1000200002B010BD01225242014BF1E7C04644
:101C2000FFFFFF7F10B5002908D0037B8B4205D34F
:101C300000684B005B18033BC01810BD024B034A01
:101C40000348682101F08EF92CE504109CE704108C
:101C500048E5041010B5437B8B4201D1012010BD33
:101C6000FFF7E0FF8378002B01D10020F7E7012088
:101C7000F5E770B50400857B002D01D1280070BD0B
:101C80002900FFF7CFFF4378A373002B00D1E37344
:101C90000023837043700370F0E70000F8B506007E
:101CA0000C001500FFF7BEFF0700002C0DD0002D23
:101CB00011D0AC4215D029003000FFF7B3FF84707B
:101CC0003B78002B13D13D70F8BD0A4B0A4A0B48F4
:101CD0006F2101F047F90A4B074A0848702101F0CB
:101CE00041F9084B044A0548712101F03BF9437062
:101CF0003D70E9E794E5041078E7041048E5041026
:101D0000A0E50410ACE5041070B506000D00140049
:101D1000002914D0002A14D043688068984700280E
:101D200006D0220029003000FFF7B8FF280007E0A6
:101D30002A0021003000FFF7B1FF200000E0100072
:101D400070BD0800FCE7000070B504000D1E0CD04B
:101D5000FFF768FF0023837043700370617B2A00E4
:101D60002000FFF7D1FF607370BD034B034A0448A6
:101D7000A52101F0F7F8C046C4E504108CE7041073
:101D800048E5041070B504000D1E0FD0FFF762FF88
:101D900000280BD1E17B00290ED1A37B002B03D1BE
:101DA000E37B002B0DD1A573E57370BD084B094A89
:101DB0000948F62101F0D6F82000FFF733FF4570FF
:101DC000EBE7064B034A0448FB2101F0CBF8C04681
:101DD000C8E5041068E7041048E50410ECE50410B9
:101DE00010B5002907D003681B7B8B4203D3C06862
:101DF0000139401810BD034B034A0448412101F04A
:101E0000B1F8C046D0E4041054E70410F4E4041020
:101E100070B505000C00080000F0C4FC0949200062
:101E200000F004FCFFF794FA074B9C4660448000E6
:101E300068602C75D0231B061B786B75034BA400C0
:101E4000E55070BD5D1F0010400000348C53002031
:101E50000A4B1A68EFF3108172B61368002BFCD09E
:101E6000BFF35F8F054B1B68BFF35F8F00221A60C3
:101E700081F3108840BF002000217047B076002019
:101E800010B582B0040000F093FB02000B0068461E
:101E9000FFF79CFE009A019B22606360200002B065
:101EA00010BD70B584B0040016001D0002A8FFF735
:101EB000E7FF029A039B009601952000FFF798FE2A
:101EC000200004B070BD0000F0B583B0070001929F
:101ED0001D000AAB1C780BAB1E78002C0BD00068E1
:101EE0002100FFF7B7FE002809D0194B194A1A48FC
:101EF000672101F037F80068FFF7BBFE0400002CF3
:101F000002D1200003B0F0BD21003800FFF72AFE07
:101F1000019B03604560089B8360099BC360386830
:101F20002100FFF711FFA042EBD1387D019A2B0071
:101F300000F0C4FB051E01D0002E04D00C9B002B2A
:101F4000DFD01D70DDE73868210000F071FDF5E796
:101F500000E60410A8E70410F4E40410F0B5DE462F
:101F600057464E464546E0B58FB00B900021784B62
:101F70008200D458894682E029002000FFF7F2FD54
:101F8000804602684368921BBB41002B09DD434633
:101F90001A685B680B9800F091FB002398460026B6
:101FA00089E0002B01D1002AF1D10021584600F030
:101FB00035FD0700A84215D143461A685B680892B0
:101FC000099343469E68DB689846002E10D029008E
:101FD0002000FFF705FF037899461B021F43276186
:101FE000002068E05B4B5C4A5C488E2100F0BAFF41
:101FF0005B4B594A5948922100F0B4FF2369002BEA
:1020000077D0BB4219D106980799002342428B41F1
:1020100000920193089A099B0CA8FFF7E9FD0C9A1E
:102020000D9B0021049101310391029541460191DC
:1020300000962000FFF748FF16E04A4B464A474803
:10204000A12100F08FFF069A079B002B01D1002AE7
:1020500052D120682900FFF795FE29002000FFF7E4
:10206000BFFE037801330370002323616268BFF36E
:102070005F8F13608AF310880120002861D00CA8BC
:10208000FFF7FEFE0C9E0D9F00220023089209938D
:102090006268EFF3108A72B61368002BFCD0BFF3AE
:1020A0005F8F23689B465D7B002D00D064E7002393
:1020B0009846002600206368BFF35F8F00221A60F5
:1020C0008AF31088002ED8D04B461F022F4341467A
:1020D0003800B047069007916268EFF3108A72B635
:1020E0001368002BFCD0BFF35F8F079B002B00DA37
:1020F00084E7079B002BA6DD2369002BA9D0BB42F8
:1021000019D10CA8FFF7BCFE0C9A0D9B06980799F5
:10211000009001910CA8FFF76BFD0C9A0D9B00211C
:1021200004910131039102954146019100962000EE
:10213000FFF7CAFE98E70B4B074A0848A42100F0B6
:1021400011FF0FB0F0BCBB46B246A946A046F0BD99
:102150008C53002028E60410D8E70410F4E404109F
:1021600040E604104CE6041010B50C4B5B68002BE5
:1021700004D00B480A21FFF753FC10BD074C094A55
:1021800020682300102100F0B4FB032000F004FAC3
:1021900003212000FFF73CFEEBE7C0463C1C00207B
:1021A000B07600209D1B001010B5064B5B68002B1D
:1021B00001D0044810BD044B044A05485E2100F0DC
:1021C000D1FEC0463C1C002088E604103CE7041009
:1021D000F4E40410F0B5DE4657464E464546E0B5F9
:1021E0008DB0060090461F00169B9A46179B994695
:1021F00018AB1B780793272302AA94466344002256
:102200001A7021E001003000FFF7EAFD00783CE0A1
:102210000698002B5CD0079B002B59D04946D0472D
:1022200004000D0003000B4359D0002940DB08A82F
:10223000FFF726FE089A099B0094019508A8FFF76E
:10224000D7FC089B9846099F7268EFF3108B72B613
:10225000136859424B41D9B20691002BF8D1BFF314
:102260005F8F273302AA94466344049300230393A9
:1022700002934B4601935346009342463B00300085
:10228000FFF722FE0400051EBCD17368BFF35F8F09
:10229000002119608BF31088002D17D0272302AA84
:1022A000944663441B78002BB2D100022043B0E770
:1022B00000236242AB410092019342463B0008A8D2
:1022C000FFF796FC089B9846099FBDE70120404216
:1022D0000DB0F0BCBB46B246A946A046F0BD06987C
:1022E000F6E7F0B5C64600B584B00500884616008E
:1022F0001F000AAB1C78FFF757FF02940197009666
:102300002A004346FFF766FF04B080BCB846F0BD24
:10231000F0B5C64600B504000D004268EFF3108723
:1023200072B61368002BFCD0BFF35F8FEEB2236848
:10233000984631001800FFF78DFC00282AD0236949
:10234000AB4213D02D0AEDB231002000FFF748FD5B
:102350000378AB4211D000206368BFF35F8F002287
:102360001A6087F3108880BCB846F0BD0C4B0D4A4C
:1023700095210D48490000F0F5FD3100404600F080
:1023800057FB0028E8D1094B064A32210648FF31A5
:1023900000F0E8FD2369AB42DED100232361DBE7D7
:1023A000ACE6041024E70410F4E40410D0E60410B2
:1023B00010B50400FFF7F8FE2100FFF7A9FF10BDDC
:1023C000407D704730B587B004000D00EFF3058302
:1023D000002B20D106225242D31712196B418B4297
:1023E00002D803D1824201D90022002304A8FFF7BA
:1023F000EDFB02A8FFF744FD02980399049A059BA0
:10240000121A8B41002B0BDC08D02000290000F0B1
:10241000DBF807B030BD144800F03CFE002AF4D0D1
:10242000124A0498059900230093FFF75AFF0028E9
:1024300013DAEAE70E4B1A68EFF3108172B61368ED
:10244000002BFCD0BFF35F8F094B1B68BFF35F8F7E
:1024500000221A6081F3108820BF04980599FFF7C5
:102460006DFB0028E6D0D0E7D4E60410511E001022
:10247000B076002000B583B002000B006846FFF77D
:1024800010FD00980199FFF79DFF03B000BD10B546
:10249000FA2292000023002102F07AFEFFF7EAFF01
:1024A00010BD000030B583B005000C00EFF30583CC
:1024B000002B0FD10B4A00230093FFF712FF0028D7
:1024C0000BDD20BFFFF774FF28002100FFF736FB6C
:1024D00003B030BDFFF732FBFAE728002100FFF719
:1024E0002DFBF5E7511E001010B5002B02DB02603A
:1024F000436010BD024B034A03483F2100F032FD08
:10250000A8E30410ACE80410C4E3041070B5EFF3C2
:1025100005801038EFF3108C72B6194B1B68002B36
:10252000FBD0BFF35F8F01221300834015494B633B
:1025300015490B60154909780C00C440224213D09C
:10254000104A546A124A8500AA58944205D3114A87
:10255000AA580E4C9943217007E00A4A031D9B00BC
:1025600099589950002200E00022BFF35F8F044B7E
:10257000002119608CF31088002A00D0904770BDAC
:10258000280100D0004005403C7005403277002013
:10259000BC760020884C002010B50100024A034B95
:1025A0001800FEF783FE10BD08E804102C77002009
:1025B000044B5B6A034A906A1900536A9942F9D145
:1025C0007047C04600400540084B5B6A01E0074B7E
:1025D0005B6A8B42FBD301E0044B5B6A8B4203D105
:1025E000024B9B6A8342F7D37047C04600400540C8
:1025F000F0B583B004000D00FFF7DAFF06000F000E
:1026000022002B0092197B41994202D804D19042BA
:1026100002D901225242D3176846FFF765FF00989E
:102620000199FFF7D1FF03B0F0BD000070B50400C1
:102630000E00EFF3108572B61B4B1B68002BFBD00E
:10264000BFF35F8F002E1CD02000FEF73DFF174B1D
:1026500083420BD019002000FEF750FF012120001B
:10266000FEF722FF0123A340114A1360114BA4007F
:10267000E650BFF35F8F0C4B00221A6085F3108881
:1026800070BD0C4BA2000021D1500122A2400A498A
:102690000B7893430B7005492000FFF761F8002188
:1026A0002000FEF701FFE4E7280100D00D2500100F
:1026B00038600540884C002032770020F0B5DE46B7
:1026C00000B584B00400150001921E000293FFF7CC
:1026D0006FFF03958E4202D84ED185424CD9EFF35D
:1026E000108B72B6274B1B68002BFBD0BFF35F8F9C
:1026F000254A17780125A540EBB23B431370234BC5
:102700005D63221D92000199D150214AA1000298D7
:1027100088501B6A2B4212D11C4B1B6C2B4208D0D9
:102720000020BFF35F8F174B00221A608BF31088D5
:1027300023E0184B184A1948C52100F013FCFFF795
:1027400037FF8E4214D802D1039B834210D80E4B20
:102750001B78BB420ED00D4B1D625D631F222240D1
:10276000012393400E4A1360074B1F700120D8E7E6
:102770000020D6E70120D4E7012004B080BCBB468E
:10278000F0BDC046280100D032770020004005404F
:10279000BC7600202CE8041090E8041050E80410E7
:1027A00080E200E0EFF3108C72B60B4B1B68002B3D
:1027B000FBD0BFF35F8F01238340084A13620849AF
:1027C0000A789A430A70BFF35F8F034B00221A60A6
:1027D0008CF310887047C046280100D000400540A7
:1027E0003277002010B5002908D0037B8B4205D337
:1027F00000684B005B18033BC01810BD024B034A36
:102800000348682100F0AEFB2CE50410B0E9041089
:1028100048E50410F8B506000C001500FFF7E2FFCC
:102820000700002C0DD0002D11D0AC4215D029008E
:102830003000FFF7D7FF84703B78002B13D13D7039
:10284000F8BD0A4B0A4A0B486F2100F08BFB0A4B7C
:10285000074A0848702100F085FB084B044A0548E8
:10286000712100F07FFB43703D70E9E794E50410AF
:102870009CE9041048E50410A0E50410ACE5041040
:1028800070B506000D001400002914D0002A14D0E1
:10289000436880689847002806D02200290030004D
:1028A000FFF7B8FF280007E02A0021003000FFF7FB
:1028B000B1FF200000E0100070BD0800FCE770B51B
:1028C00005000023437301338373037BC373012427
:1028D00006E021002800FFF785FF0134E4B24470D0
:1028E000297BA142F5D82800FFF77CFF0023437025
:1028F00070BD10B5017342608360FFF7E0FF10BD4B
:10290000F0B5C64600B505000C1E03D1200080BC02
:10291000B846F0BDFFF766FF4678002EF6D03100CE
:102920002800FFF75FFF4778002398464370210097
:102930002800FFF757FF434643703200210028006C
:10294000FFF79EFF040039002800FFF7D9FF0200BF
:1029500021002800FFF794FF0400D7E7F0B5C64632
:1029600000B504000D001700002927D0FFF73AFF3B
:102970004378002B28D18378002B2BD101782000BD
:10298000FFF7BEFF06008046002F0AD0E17B00293A
:1029900026D1A37B002B03D1E37B002B25D1A5738C
:1029A000E5734346002B26D129002000FFF71AFFCC
:1029B00000234370300080BCB846F0BD114B124A72
:1029C0001248382100F0CEFA114B0F4A0F483A2135
:1029D00000F0C8FA0F4B0C4A0C483B2100F0C2FA39
:1029E0002000FFF7FFFE4570D3E70B4B064A074870
:1029F000422100F0B7FA31002000FFF7F3FE002378
:102A00008370D1E7C4E8041088E90410CCE804100E
:102A100004E904102CE90410ECE5041070B504007E
:102A20000A00457B2900FFF799FF6073280070BDFD
:102A300070B506000C1E40D0437B8B4207D0FFF7D9
:102A4000D1FE05008178002906D1002036E0012161
:102A5000FFF7E4FF012031E03000FFF7C3FE01780B
:102A6000A1420DD03000FFF7BDFE4178A1420AD04F
:102A70000029F7D1124B134A13486B3100F072FA58
:102A80006B78037001E06B7843700023AB706B7060
:102A9000012221003000FFF761FF0200717B8142BB
:102AA00005D03000FFF7ECFE7073012006E0074B05
:102AB000044A0548712100F055FA002070BDC04657
:102AC000ECE2041070E90410CCE8041050E90410A2
:102AD000F8B5DE4657464E464546E0B506000F00BF
:102AE00015000A9A93424ED31A0E92461B0298463C
:102AF0000A9A00234046514601F07CFC814674004E
:102B0000A419A4002E4B9C4664446368834200D2FF
:102B10006060331FDBB29B46012B3AD9C0239B0177
:102B20002343802212011A60264BB200D15800299B
:102B300005D0586901F020FC01300138FDD16D014C
:102B400023685D40E0222A4080235B0123431A6012
:102B50005A46012A28D980239B012343802212014F
:102B60001A604B4663604A4600234046514601F0D6
:102B700041FC144BB60098510120F0BCBB46B24654
:102B8000A946A046F8BD104B104A11482D2100F06F
:102B9000E9F9012FC2D1C0239B01234303221A600C
:102BA000A368DB07FCD5CAE72168794003220A4005
:102BB0001A60A3680125BD401D42FAD0CBE7C0468C
:102BC00000800040AC4D0020BCE9041014EA041061
:102BD000D0E9041030B583B00C2000F017F9FEF7EF
:102BE00045FB00280DD0002304E02E4A99002E4812
:102BF00088500133092BF8D92A4B2C4A5A6203B06A
:102C000030BD2B4B00229A6700F072F9294B01224C
:102C10001A60274B5B6C012BFBD1274B03221A60F8
:102C2000234B9B6B012BFBD1013300930433234ACD
:102C30000121234800F054F805230093214A012183
:102C4000214800F04DF8214B00930022022104207E
:102C5000FFF73EFF1E4D00952B00002201210520AD
:102C6000FFF736FF104C00942300002200210720BC
:102C7000FFF72EFF00942300002200210820FFF719
:102C800027FF0A4B00932300002200210920FFF7B1
:102C90001FFF00952B00002200210620FFF718FFE0
:102CA000ADE7C046AC4D0020006CDC021BB7000055
:102CB000008000403CB0004030B00040002F685918
:102CC00000800240008C864700C00240001BB70015
:102CD00040597307014B8000C0587047AC4D00202D
:102CE000F0B5C64600B504000D00170098460C204C
:102CF00001F042FB0600394BFA18394B9A4241D891
:102D000043011B1A9901C91AC90009188901380021
:102D100001F032FB0200103A98235B009A4237D848
:102D20004346013B062B39D8069B013B062B35D881
:102D30003F09B74238D343461E04069B1B031E437C
:102D40002368002B36DB274B9C4244D080235B0159
:102D5000254A1360254A1360254A92681900914359
:102D6000FAD12560A060221DC0239B0113432122BC
:102D70001A602268002AFCDAE66008221A6080BC29
:102D8000B846F0BD1B4B1C4A1C48112100F0EAF864
:102D90001B4B194A1948192100F0E4F8194B164A3F
:102DA00016481C2100F0DEF8174B134A1348232164
:102DB00000F0D8F822683F231340AB42C3D1A36888
:102DC0001B051B0D8342BED1E368EE22D2021340E5
:102DD000B342B8D1D3E780239B01B9E780E84BD356
:102DE00080F8A93200C0024000E0004000F000403E
:102DF00000C0004024EA041044EB041084EA0410EC
:102E0000C0EA0410DCEA041028EB041080239B00C5
:102E10000343014AD362704700800540024B1A68A1
:102E2000024B5A607047C046605200200080054047
:102E300010B5174B8022D2051A60164B164A1A603D
:102E400000290AD0154BE022D2041A60002809D1CB
:102E5000124B802212061A6010BD0D4BE022D204E4
:102E60001A60F3E743011B1A9B00181800010C4B72
:102E7000186080235B04984202D3094B094A1A6008
:102E8000FFF7CCFF054B8022D2051A60E4E7C0466D
:102E900000B0054008200140FCFF010000A00540F3
:102EA00060520020FFFFFF0010B5030010000C4A25
:102EB0008024E4051460002B0DD001221343094A3D
:102EC000094CD461094C5C40146251629362002148
:102ED000FFF7AEFF10BD034B0022DA61F7E7C046F3
:102EE00000B0054000800540D3C007B02D3FF84F2B
:102EF000064BAA2212011A602F22DA60044B054AFF
:102F00001A60024B5B68002BFBDA704700400240FE
:102F10000060024000B0FA0000BEFDE703000A4A6C
:102F20001268002A08D0084A1068C318074A9A4253
:102F300006D3054A13607047034A05491160F2E75A
:102F400001204042F7E7C046584E00200000042010
:102F5000347700200020704701204042704710B5B0
:102F6000FFF7DAFF30B583B00D001900002A0BD04F
:102F7000074B084C019200932B000200200002F046
:102F8000E1FC0120FFF7C8FF034B1A00F1E7C04640
:102F900050EB041060EB04102425051070B52B4B8A
:102FA0002B4A1A602B4B2C4A1A602C4B9A682A4BDE
:102FB0009343FAD12A4C01E008CC9847294B9C4214
:102FC000FAD3FFF707FE234B274A1A60234B9B686F
:102FD000DB43DB01FAD1254B40229A675A671A6717
:102FE000DA66234C09E0234B234A24488621FFF765
:102FF000B9FF2000FEF771FD0834214B9C4209D235
:103000002368002BF5D0012BEDD12000FEF772FDD7
:103010000834F2E71B4DA9681B4CC022200002F0C7
:1030200067FAAC60EFF30583002B00D000BEFEF71B
:103030007FF9FEF7D1FCFFF797F8144C01E008CCBC
:103040009847134B9C42FAD370BDC04600E0004045
:10305000BFCDFBFE00F00040FE7F3C0000C0004002
:103060003C2D00204C2D0020FFFFFF0100F001400F
:10307000342D002090EB041000EC0410B0EB041091
:103080003C2D002000ED00E0000000204C2D002031
:10309000802D00200FB400B583B0084802F022FC58
:1030A000049B002B07D005A90191180002F02AFC0F
:1030B000034802F017FC0120FFF72EFFF0EB04108D
:1030C0009CDF04109A4200D288547047704710B5B4
:1030D000002802D00B684968984710BD0100002005
:1030E00007E083001B185B00501C08601078C018B4
:1030F00030380A681378303BDBB2092BF1D97047BE
:10310000F0B5DE4657464E464546E0B583B0934699
:103110001F000C9B9A460D9C0E9B99460F9B9B078C
:1031200003D0B8460F00060022E00192A34688466D
:103130004E46B9460700B44207D2551C4B4641469D
:103140002020B84701342A00F5E73D004F465C4691
:10315000019B9B46B1464646B84637002E0007E025
:10316000013C551C5346185D43463900B0472A00C0
:10317000002CF5D135003E0047460F9B9B0707D436
:10318000100003B0F0BCBB46B246A946A046F0BD55
:10319000B0464E46B9462F005D46531BB342EFD2B0
:1031A000541C4B4641462020B8472200F5E7F0B5B5
:1031B000CE46474680B585B0944698460C9D0D9CFA
:1031C0000EAB1B789946109A119B129EB7071CD420
:1031D000002B0CD0F7070AD54F46002F02D10C3731
:1031E000374204D0013B02E030272F55013494428E
:1031F00001D21F2CF8D9F70707D59C4205D21F2C06
:1032000003D830272F550134F5E7F70612D5770597
:1032100005D4002C03D0944221D09C421FD00F9A99
:10322000102A32D00F9A022A37D01F2C0AD8302207
:103230002A5501341F2C05D84A46002A33D02D22A6
:103240002A55013403960293019400954346624641
:10325000FFF756FF05B0C0BCB946B046F0BD621ED0
:10326000012C10D00F9F102F0BD014000F9A102A92
:10327000D8D1B206D6D51F2CD4D858222A5501341D
:10328000D3E7023CCBE71400C9E7B206EED41F2C0B
:10329000ECD878222A550134C7E71F2CD2D86032E7
:1032A0002A550134C1E7720703D52B222A55013470
:1032B000C8E73207C6D520222A550134C2E7F0B547
:1032C000DE4657464E464546E0B593B081468A46AF
:1032D000089209931CAB10CB1B789B461E9D219B2B
:1032E0009846002C03D1102342469A4390468023EF
:1032F000DB0046461E4042461A4212D0002C22D025
:1033000000260EE03033D9B2771C0AAB995529005C
:10331000200001F031F8AC4216D31F2F14D83E0024
:1033200004002900200001F027F8CBB2092BE9D9CD
:103330004246920605D54121C918C9B20A39C9B217
:10334000E2E76121F8E7270043460693209B0593B7
:103350001F9B049303955B46029301970AAB00936E
:10336000099B089A51464846FFF721FF13B0F0BC6D
:10337000BB46B246A946A046F0BDF0B5DE4657466C
:103380004E464546E0B597B00A900B910C929A468E
:10339000209B9946219F22AA13789B46249B099340
:1033A000259C289B98464A463A4302D110329343C3
:1033B00098468022D20045461540434613420AD023
:1033C0004A463A4341D000252E0053460D934D46C0
:1033D000099B9A461BE02E0053460D934D46099BD0
:1033E0009A4614E03033DAB2731C99460EAB9A5504
:1033F000524623002800390000F0FCFFBC4226D8CA
:1034000019D04B461F2B1CD84E4605000F005246C4
:1034100023002800390000F0EDFFD3B2092BE1D9D9
:103420004246920605D54122D218D2B20A3AD2B209
:10343000DAE76122F8E7AA45E3D94E460D9B9A46A2
:1034400008E04E460D9B9A4604E0002602E04E46F8
:103450000D9B9A4643460693279B0593269B049310
:10346000099B03935B46029301960EAB0093534670
:103470000C9A0B990A98FFF79AFE17B0F0BCBB465E
:10348000B246A946A046F0BDF0B5DE4657464E46C8
:103490004546E0B591B0804689460C929A461A9C02
:1034A0001B9D22002B002000290001F036FA002885
:1034B00000D0ECE001225242D44B2000290001F060
:1034C00027FA002800D0E2E001225242D04B20002F
:1034D000290001F007FA002800D0D8E000220023DC
:1034E0002000290001F0FEF9002800D0E4E0069455
:1034F00007958023DB001E9A1A400D921E9A1A42ED
:1035000001D106231C930698079902000B0008922C
:10351000099303000A00024300D1D9E0080D4005D9
:10352000400DBC4EB44660440A03120B1E00BA4B59
:1035300013431F0001F004FAB84AB94B01F087F9B0
:10354000B84AB94B01F05CF9089009910022B74BD9
:103550003000390001F04BF9B54AB64B01F077F96C
:1035600002000B000898099901F04AF901F000FAED
:10357000834601F0E5F906000F00AF4AAF4B01F0BA
:1035800066F90022AE4B01F03BF901F0F1F9089029
:10359000AC4AAD4B3000390001F059F906000F007C
:1035A000089801F0CDF9A94AA94B01F050F90200A1
:1035B0000B003000390001F01AF906000F0002007C
:1035C0000B0001F044F90A900B91089BA14A944624
:1035D000634400210022089109921B0509930023EE
:1035E000089332003B003000390001F009F90E90D9
:1035F0000F9132003B0000208021C90501F0F7F84F
:1036000006000F000022944B0A980B9901F001F973
:103610000022924B01F0F4F802000B000A980B997B
:1036200001F0F7F800228E4B01F0EAF802000B00DF
:103630000A980B9901F0EDF802000B0030003900F8
:1036400001F0DEF802000B000E980F9901F0E1F88E
:103650000022714B01F0D4F8089A099B01F0F7F8A9
:1036600006000F0008960997069A079B01F050F98B
:1036700000282FD001235B429C46E3440022774B75
:103680003000390001F0C5F80890099122E01E9B36
:1036900004931D9B03931C9B029300940195534636
:1036A0000C9A4946404600F0FFF811B0F0BCBB460A
:1036B000B246A946A046F0BD00210022069107921D
:1036C000069480231B069C46AC446346079310E790
:1036D00000239B465B466333C62B20D804261E9BE3
:1036E0001B0528D5089A099B190011430FD05D4A84
:1036F0005D4B0698079901F003F900287AD0002263
:103700005A4B0698079901F0EDF8002872D01C9BDF
:103710005B4506DD5A469B1A013B1C9303E00526D8
:10372000DDE700231C938023DB001E9A1A431E92C0
:10373000002600239B461D9B9E4265D29F1B0223B1
:103740001E9A1A400A921E9A134202D0002E00D0EE
:1037500000275B46002B07D0089A099B069807991B
:1037600001F057F80690079100220023200029005D
:1037700001F0B8F8002800D07CE03D4B1E9A1340C1
:10378000049303971C9B0293069B079C0093019450
:1037900053460C9A4946404600F086F8002E00D168
:1037A00083E71E9B9B0671D54525441C53460200AA
:1037B00049462800C0475A46D317D2185A40052315
:1037C0000593013E0496002303930A3302935B465C
:1037D000DB0F019300925346220049464046FFF713
:1037E0006EFD0A9B002B00D15FE7020047460C9E4E
:1037F0001D9D53E01C9B002B9DD00D9B002B9AD050
:103800001C9B013B1C9396E7002798E7FFFFEF7F87
:10381000FFFFEFFF01FCFFFF0000F03FFB799F502F
:103820001344D33FB3C8608B288AC63F0000F83FDB
:1038300061436F63A787D23F71A379094F930A4011
:103840000000E03F1655B5BBB16B0240EF39FAFE00
:10385000422EE63FFF03000000002C400000244001
:10386000000018402D431CEBE2361A3F80842E41A5
:10387000FFF7FFFF069C079D22002900802000061D
:10388000844661440B000692079376E765258CE732
:10389000541C534649462020B8472200931BAB4294
:1038A000F6D3100001E7C046F0B5DE4657464E4657
:1038B0004546E0B595B00690079193469946209FFE
:1038C0001E9A1F9B1000190001F027F8002831D123
:1038D00001225242BF4B1E981F9901F003F80028A5
:1038E00037D101225242BC4B1E981F9901F010F8AB
:1038F00000283DD10022B94B1E981F9901F008F80D
:10390000002850D10022B64B1E981F9900F0EAFF04
:10391000002848D1002200231E981F9900F0E2FFE2
:10392000002850D100239846229B5B0500D4B6E0C6
:10393000002458E0229B0393219B029303230193CD
:10394000A84B00934B465A4607990698FFF7D8FBB9
:103950000EE1229B0393219B029304230193A24B2C
:1039600000934B465A4607990698FFF7C9FBFFE0BC
:103970000423229A1A4022990B4210D09B4B002A12
:103980000FD0042222990391219902910192009370
:103990004B465A4607990698FFF7B2FBE8E0944B6E
:1039A000EDE70322EEE7229B0493219B039302970A
:1039B0001E9B1F9C009301944B465A4607990698FC
:1039C000FFF762FDD4E01E9A1F9B0020002100F04B
:1039D0000EFF1E901F9101239846A5E70CAB3022E5
:1039E0001A55013F01341F2C01D8092FF6D81E9813
:1039F0001F9900F0BDFF050000F0A2FF02000B00C0
:103A00001E981F9900F0F3FE7A4BFA009B181A6873
:103A10005B680A920B9300F01AFF0890099100F07E
:103A2000CBFF060000F088FF02000B000898099900
:103A300000F0DDFE0890099100226F4B00F068FF56
:103A400000282ED00136300000F076FF02000B0077
:103A50000A980B9900F04CFF002801D00135002690
:103A6000002F2CD1280000F06BFF02000B001E98E5
:103A70001F9900F0BCFE06000F0000225E4B00F014
:103A800031FF002846D100225B4B3000390000F0A6
:103A90003FFF00283ED1EB073CD501353AE0062731
:103AA00046E70022544B0898099900F01BFF0028B4
:103AB000D6D1002E01D0F307D2D50136D0E7AA46E1
:103AC0001F2C11D8013F0A21300000F055FC651C65
:103AD00030310CAB19550A21300000F04DFC092E95
:103AE0000ED906002C00EBE755461F2C0CD87B1E88
:103AF000002F09D00CAA302111551F000134F4E722
:103B00002B0055461C00F0E71F2C03D80CAB2E22CF
:103B10001A5501341F2C10D80A21280000F004FC8B
:103B2000661C30310CAB19550A21280000F0FCFB53
:103B3000051E01D03400EDE734000323229A134020
:103B4000012B1CD01F2C06D84346002B32D00CABC7
:103B50002D221A550134229B0393219B0293019439
:103B60000CAB00934B465A4607990698FFF7C8FAE4
:103B700015B0F0BCBB46B246A946A046F0BD219B9D
:103B8000002B13D04346002B02D10C3313420FD02D
:103B9000219B013B2193190003E00CAB30221A5505
:103BA00001348C42CED21F2CF7D9CBE72199F8E70C
:103BB0002199F6E7229B5B0704D50CAB2B221A5503
:103BC0000134C8E7229B1B07C5D50CAB20221A5530
:103BD0000134C0E7FFFFEFFFFFFFEF7F65CDCD4171
:103BE00065CDCDC11CEC041020EC041010EC0410C9
:103BF00018EC0410C8ED04100000E03FF0B5DE46FC
:103C000057464E464546E0B593B0824688469346B1
:103C10001193002900D106E300255646119B187820
:103C2000002800D102E3252809D06C1C5B462A003D
:103C30004146B047119B013311932500EEE7013354
:103C40001193002720E001231F4301321192012428
:103C500018E002231F4301321192012412E00423D1
:103C60001F430132119201240CE008231F4301324B
:103C70001192012406E010231F4301321192012406
:103C800000E00024002C09D0119A1378203BD9B20F
:103C90001029F6D88B00C449CB589F46119B1A783F
:103CA0001300303BDBB2092B10D92A2A13D00B9416
:103CB000119B1A782E2A1ED0119A1378683BD9B21C
:103CC000122959D88B00B949CB589F4611A8FFF744
:103CD00005FA0B90ECE71C9B1A1D1C921B68002B2D
:103CE00004DB0B93119B01331193E1E7022217438D
:103CF0005B420B93F6E78022D20017435A1C1192C5
:103D00005A781300303BDBB2092B0BD92A2AD3D1C6
:103D10001C9B1A1D1C921C68002C08DB119B013394
:103D20001193C9E711A8FFF7D9F90400C4E70024EB
:103D3000F4E780235B003B43511C119151786C29BF
:103D400001D01F0018E0C0239B001F4302321192D4
:103D500012E080233B43511C11915178682901D016
:103D60001F0009E0C0231F430232119204E08023A8
:103D70005B001F4301321192119B1878672816D8F7
:103D8000252826D30300253BDAB2422A21D8930006
:103D9000874AD3589F4680239B001F4301321192CC
:103DA000EAE780235B001F4301321192E4E77828A1
:103DB0000FD869280DD30200693AD2B2012393408B
:103DC0007C4A13420FD11A0600D507E25B0500D5E5
:103DD00094E16C1C5B462A004146B047119B0133BD
:103DE000119325001AE778280AD062283AD06F2864
:103DF0003BD058283CD010239F43063B9C4601E013
:103E000010239C46582836D0692803D0642801D056
:103E10000C2297437A0501D50122974369282DD0BA
:103E200064282BD0BA0500D5A2E0FA0500D5C3E07E
:103E30007A0600D4D5E01C9A111D1C911168FF224E
:103E40000A4005970B9B0493039463460293002357
:103E5000019300925B462A0041463000FFF72FFA9B
:103E600005002AE002239C46CCE708239C46C9E7CC
:103E700010239C46C6E720221743C5E7BA0520D485
:103E8000FA0550D47A0666D51C9A111D1C9111684A
:103E9000FF220A40D0171118414005970B9B04934D
:103EA000039463460293D20F019200915B462A006D
:103EB00041463000FFF703FA0500119B01331193CF
:103EC000ACE61C9A073207218A43110008311C9185
:103ED000116853689946DB170C930D930C9A0D9B50
:103EE000100048400E904A4653400F930E980F9989
:103EF0000C9A0D9B801A99410E900F9108970B9B7D
:103F00000793069463460493002305934B46DA0F08
:103F10000292009001915B462A0041463000FFF773
:103F20002CFA0500C9E71C9A111D1C911268D017C4
:103F30001118414005970B9B049303946346029329
:103F4000D20F019200915B462A0041463000FFF7F4
:103F5000B6F90500B1E73A0605D51C9A111D1C916A
:103F60000023D25E96E71C9A111D1C91126891E7FE
:103F70001C9A073207218A43110008311C910897C7
:103F80000B9B0793069463460493002305930293C7
:103F900053681268009201935B462A004146300044
:103FA000FFF7EBF9050088E728EC04106CEC04102F
:103FB000B8EC0410419000001C9A111D1C9105974B
:103FC0000B9B0493039463460293002301931368AD
:103FD00000935B462A0041463000FFF770F9050068
:103FE0006BE73A0606D51C9A111D1C911268120443
:103FF000120C26E71C9A111D1C91126821E7462815
:1040000019D01C9B0733072293431A0008321C92D5
:1040100004970B9A039202941A685B6800920193CA
:104020005B462A0041463000FFF73EFC0500119B2D
:1040300001331193F2E520231F43E2E7672801D003
:10404000472802D180231B011F43452801D0472860
:1040500001D120231F431C9B0733072293431A00DF
:1040600008321C9204970B9A039202941A685B68B8
:10407000009201935B462A0041463000FFF704FAA4
:104080000500119B01331193C8E502231A003A4041
:1040900091463B421DD001241C9B1A1D1C926F1C93
:1040A00018785B462A004146B0474B46002B14D196
:1040B000119B013311933D00B0E5571C5B4641460F
:1040C0002020B04723003A005C1C9D42F5D8150023
:1040D000E2E701232A000B9DF6E73A00B1460B9E6A
:1040E00006E0571C5B4641462020C8472C003A009A
:1040F000651CA642F5D817004E46D9E71C9B1A1D31
:104100001C921B689A46002C25D10122524253462C
:1041100001E001330A001978002902D0511E002A5B
:10412000F7D152469B1A8022D200390011408946AD
:10413000174202D0A34200D92300022211003940C5
:1041400010913A4209D02A00250057469A4633007A
:104150004E46994621E02200D9E72A004546A0466E
:1041600006E0541C5B4629002020B0473B0022009B
:104170005F1C0B999942F4D84446A8463B002500A1
:1041800057469A4633004E46994606E01D000137D1
:10419000541C5B464146C84722003878002804D0AA
:1041A000002EF4D06B1E002DF0D1150053464E4664
:1041B000109A002A03D1119B013311932EE50B9F16
:1041C0002A0006E0551C5B4641462020B0472300EC
:1041D0002A005C1C9F42F5D81500ECE721233B43E5
:1041E0001C9A111D1C9112680593082304930394D3
:1041F000083302930023019300925B462A00414654
:104200003000FFF75CF80500119B0133119305E5C1
:104210006C1C5B462A0041462520B047119B0133A8
:1042200011932500FAE40B4B9A46F5E4B2465D453E
:104230000DD35B465A1E5B4641460020D0472800FE
:1042400013B0F0BCBB46B246A946A046F0BD2A005A
:10425000F1E7C046CD3000100EB430B584B0010097
:1042600007AC08CC03940122054D0094524228006B
:10427000FFF7C4FC04B030BC08BC03B01847C0460C
:10428000C530001010B582B0044C009313000A0032
:1042900001002000FFF7B2FC02B010BDC5300010D5
:1042A00000B585B0029003910121044800931300EA
:1042B0004A4202A9FFF7A2FC05B000BDCF300010B2
:1042C00001480421014B1847701C0020F1420010E6
:1042D00010B5010018231B8814221088984710BDC0
:1042E00010B5010018231B8816221088984710BDAE
:1042F000F0B5C64600B507000E000025012398461C
:1043000000E00135B5420AD2AC003C192068FFF745
:10431000DFFF20600028F4D100239846F1E74046F3
:1043200080BCB846F0BD0000124A936F9B0815D2BE
:104330009066D166002905D0FFE7FFE7FFE7516FE0
:10434000106F704704B580210906C217514000283C
:1043500000D0C84349F0F0FC002104BDF0B5146E54
:10436000556E576F166FFFF7E3FF14665566576774
:104370001667F0BD000000D0114A936F9B0813D25E
:1043800010665166002905D0FFE7FFE7FFE7516F90
:10439000106F704704B5002801D00020C04349F0D9
:1043A000CBFC002104BDC046F0B5146E556E576FAE
:1043B000166FFFF7E5FF1466556657671667F0BD81
:1043C000000000D094464A4A926F9208624601D299
:1043D00028E0C046F0B5464E346E756E776F366F86
:1043E00000F020F89446424A1466556657671667EF
:1043F0006246F0BD94463E4A926F9208624601D2F0
:1044000054E0C046F0B53A4E346E756E776F366F35
:1044100000F04CF89446364A14665566576716679E
:104420006246F0BD002B24DB11D000293EDA00B536
:10443000C943404200D1013100F038F8C94340423D
:1044400000D10131DB43524200D1013300BD002ACB
:10445000EBD1002801D1002905D00020C90FC907E0
:1044600001D1C043410800B549F036FC00220023C9
:1044700000BD00B500290ADBDB43524200D1013305
:1044800000F014F8C943404200D1013100BDC943D6
:10449000404200D10131DB43524200D1013300F0F0
:1044A00005F8DB43524200D1013300BD002923D17E
:1044B000002B18D1002A0CD0BC460D4F38667A6606
:1044C00000210023FFE7FFE7FFE77A6F386F6746B9
:1044D0007047002801D00748010000B549F0FCFBF7
:1044E0000022002300BD02000B00002000217047C5
:1044F000000000D0FFFFFFFF002B00D0BFE0130C37
:1045000028D1002AE7D080B4114F39667A66FFE7D8
:10451000FFE730B4040C7B6F396F1B0423433B6609
:104520007A66FFE7FFE7FFE7C04684B27B6F3D6F27
:104530001B0423433B667A66FFE7FFE7C046002380
:104540002C042D0C7A6F386F00196941B0BC70478C
:10455000000000D0F0B594460025140E01D11202DF
:104560000835140F01D112010435940F01D19200C6
:104570000235D40F01D152000135D40B0134254F3F
:104580007C66254C3C660E0C93B2FFE7FFE7FFE725
:104590003C6F6643360C7703BE467343DF0B5B0408
:1045A000C01AB941130C7343DB18C91ACE0866430D
:1045B000360CB64493B273431F0F1B01C01AB941A6
:1045C000130C73431F0B1B05C01AB941860D8F02D4
:1045D0003E436643360C092D24DB520A7243801A8F
:1045E0007703460A6643360C16235B1BDE40DF402A
:1045F000BF1964466643821B7046043506330100CA
:10460000D940A840C01900D30131A24206D20023EC
:10461000F0BD0000000000D0FFFFFFFF121B0130C3
:10462000F3D3F1E709277F1BFE406446A2B2724331
:10463000801A00D20139220C7243130C1204821A20
:1046400099410B007046043513370100F940A8402A
:10465000801900D30131002B02D1A2420AD2F0BD51
:10466000013000D30131121BFAD2013BF8D1A24232
:1046700000D2F0BD013000D30131121BF7E7F0B5D5
:104680001C0C00D080E00CB400251C0A04D11B02D5
:10469000160E3343120208351C0B04D11B01160FF2
:1046A0003343120104359C0B04D19B00960F334316
:1046B00092000235DC0B02D192185B4101351C00DF
:1046C000971864410134464F7C66464C3C660E0C9C
:1046D000FFE7FFE7FFE7C0463C6F6643360C770312
:1046E000BE4697B27743C01B00D20139C01B00D22F
:1046F00001399FB27743C91BC91B170C77437E044E
:10470000FF0B801BB941CE086643360C0C2D33DB02
:10471000B644120B1F053A431B0B97B27743C01BDD
:1047200000D201399FB27743C91B170C77433E046F
:104730003F0C801BB941860D8F023E4366432927FB
:104740007F1BFE400C3D7746AF40BF1930BCA2B284
:10475000ABB272437343801A9941220C7243130C1B
:104760001204801A994102000B000137001BA94175
:10477000F9D2781E0021F0BD0C277F1BFE40774642
:104780007F0BAF40FF19E0E700245D1C07D0144FFA
:104790007D663966FFE7FFE7FFE7FFE73C6F95B20D
:1047A0009EB265436643401BB141150C1E0C654328
:1047B000664336042F0C3E432D04401BB141994201
:1047C00004D202000B0020000021F0BD01D1904274
:1047D000F7D3801A994101349942F2D3F6E70000E9
:1047E000000000D0FFFFFFFF48404140484018B4A0
:1047F0001B4B5B68FC46019308BD04DF5F4B001058
:1048000018B4174B1B68FC46019308BD00DF694BC9
:1048100000109446134A926F920809D2624618B467
:104820000F4BDB68FC46019308BD0CDF214E0010E6
:104830000C4AF0B5146E556E576F166F6246FFF74F
:10484000EEFF084A1466556657671667F0BD18B440
:10485000034B9B68FC46019308BD08DFC54C001064
:10486000AC740020000000D0FFB5504042405040E2
:1048700059404B40594000E0FFB5154F4C00640DC6
:1048800003D0BC4204D10C0314D80020090D090543
:104890005C00640D03D0BC4204D11C030AD8002282
:1048A0001B0D1B0501264B4009D44B4003D58B4201
:1048B00000D18242FFBD9942FCD19042FFBD0B4323
:1048C000DB1803431343F5D0C9434918FFBD00006B
:1048D000FF07000000B5FFF7CFFF01D0002000BDAB
:1048E000012000BD00B5FFF7C7FF804100BDC046F5
:1048F00000B5FFF7C1FF01D9002000BD012000BDB8
:1049000000B5FFF7B1FF01D9002000BD012000BDB7
:1049100000B5FFF7A9FF804100BD012040054A0016
:10492000121804D85A00121801D80020704701202C
:1049300070470020704700000021002805D1704713
:10494000C1174840401AFAD0C90713B5064B1B6877
:1049500098470CBC441CA2401005120B0349091BCC
:1049600009051943114310BDAC7500201F04000058
:1049700010B54C00620D8023D218DB00D21A5B0503
:104980007E2A10DD9E3A13DACC1709034908194331
:104990005242D140640001341532202A05DAD04059
:1049A0000843604310BD002010BD0846604310BDA1
:1049B000C80FC018013810BD18B4044B5B6AFC4620
:1049C000019308BD24DFD14F00100000AC7400201B
:1049D00018B4044BDB6DFC46019308BD5CDFDD5071
:1049E00000100000AC740020C94211D300B549008A
:1049F0004908002200F018F8002904D4002240429F
:104A00008A41114600BD80210906002000BD00003A
:104A100018B4044BDB6EFC46019308BD6CDFDF4F1E
:104A200000100000AC74002018B4044B9B6FFC46CF
:104A3000019308BD78DFFB4F00100000AC7400202C
:104A400018B4044BDB6FFC46019308BD7CDF695052
:104A500000100000AC74002070B513231C78012CEA
:104A600012D0012C12DC214B214A93642148FFF71C
:104A70002FFC214B186070BD1C491D4A98008150C5
:104A800001331F2BF8D9ECE70023FAE71B48FFF7A7
:104A900027FC05001A48FFF723FC023803789B0027
:104AA0007F2B09DD12488022290000F021FD022C15
:104AB00008D0022CDADCD6E7124B134A1348322115
:104AC000FEF750FA124B1A88B5231B029A4209D1FD
:104AD000104B1A88104B9A4204D1104B1A88104B75
:104AE0009A42E6D00020FEF7D5FAC046254B0010CA
:104AF000AC7400204C330000AC750020534400001F
:104B00005346000018EE0410C0EE041078EE0410B6
:104B100054380000D8380000494600009C38000096
:104B20005946000007B56046002800D100BE018844
:104B30000A0A0230DF2AFAD1C9B2820804D30288F5
:104B400040880004104300E00068024A505003907F
:104B500007BD0000AC7400200FB403BC0CBCF0B562
:104B60000124E407634000E0F0B50C0DCF0F661E92
:104B70003605891B640503D3C943404200D3013184
:104B8000640D03D0661CF60A07D0E41B00207F00EA
:104B9000791C89078912803C24031D0DDF0F6E1ECE
:104BA00036059B1B6D0503D3DB43524200D3013313
:104BB0006D0D03D06E1CF60A07D0ED1B00227F009E
:104BC0007B1C9B079B12803D2D032F1B661B58D41B
:104BD000A446202E46DA20371400BC401D00BD40FC
:104BE000F24033412A4380185941CB0F05D0C943C5
:104BF000C043002264425041514162464D0D28D1CC
:104C00000D0D07D100281FD0241940414941013A18
:104C10000D0DF9D0640006D3013000D30131002C12
:104C200001D140084000013A0BD4941CE40A04D19D
:104C300012051144DB071944F0BDD907204B194375
:104C400000E0D9070020F0BD0029DDD1002CDBD128
:104C5000F0BD0132C6074008CD0728434908002EA1
:104C6000E1D0D9E73C2E29DA203E40371400BC4081
:104C700000D00124F24014431A00BB401C43D31758
:104C8000ACE7AC46202F08DA20360400B4400D0013
:104C9000B540F84039412843A5E73C2F0CDA203FC6
:104CA00040360400B44000D00124F840044308001A
:104CB000B1400C43C117EAE710001900002494E743
:104CC0000000F07FF0B50C0D661E3605891BE60A64
:104CD0006405640D02D0651CED0A04D0002001219A
:104CE0000905803C2403A4461C0D671E3F05DB1B01
:104CF000E70A6405640D02D0651CED0A04D00022A9
:104D000001231B05803C24037740644497B484B29C
:104D100096B27443070C7E43150C6F4380B2684310
:104D2000361802D3012000043F183004350C001956
:104D30007D41844688B29AB250430C0C62431F0CEA
:104D40007C438EB27E43921902D301263604A41905
:104D50001604170C3618674101BC81B29AB2514350
:104D6000040C62431B0C5C4380B25843121802D3FC
:104D70000120000424181004130C401863412D185E
:104D80005E410020474106BC88B293B258430C0CE8
:104D90006343120C544389B251435B1802D301217F
:104DA0000904641819041A0C091862416D18564157
:104DB0000020474118BCF902720D1143F0026A0D40
:104DC0001043ED020A0D03D16D1940414941013BE9
:104DD000124E9B1B7600B3420ED26D0007D30130FA
:104DE000002671416646354301D1400840001B054D
:104DF000C918E4072144F0BD0BDA013306D10130B4
:104E000004D101314F0D01D04908F2E7E10700203C
:104E1000F0BD013631050020EBE70000FF03000084
:104E2000F0B51C0D671E3F05DB1BE70A6405640D2A
:104E300002D0661CF60A04D0002201231B05803C28
:104E40002403D0252D060026F6432E661E096E6625
:104E5000CE0FF619B44649004F0D02D07E1CF60A5B
:104E600003D000200021403F3F033E1BB600B44466
:104E7000013F7F05C91B49082E6F013676089C0249
:104E8000950D25437543ED137543AD1301356D1035
:104E9000F603761B0CB4CC02450D2C43A2B2B3B280
:104EA0005A43270C7B43350C6F43A4B26C431B1948
:104EB00002D3012424043F191C041D0CA4187D41B5
:104EC00024196D41009A91B2ACB26143170C7C4336
:104ED0002B0C5F4392B25A43A41802D3012212044E
:104EE000BF182204230C52187B41019C6C431B19F0
:104EF000520ED9010A434401A01A81B2B2B2514301
:104F000003145A43360C734387B27743D617D2192A
:104F100000277E4136049B191704160C7F185E414A
:104F20007316ED18F301002680337541A90F06D1E1
:104F30006400690AE8055B0A184309D22FE00422DD
:104F4000944480337541A90AA8059B0A184326D3C7
:104F5000404149412404009A019B0D005543641BC4
:104F60004343E41A95B286B27543170C7E43030C93
:104F70005F4392B25A43B61802D301221204BF18FB
:104F80003204330C52197B4152429C41002C02D412
:104F90000022013051414008CA071043490802B0BD
:104FA0006246D7079210084BD218084B9A4203D298
:104FB00012058918C919F0BD0020002A01DC39004A
:104FC000F0BD01331905F5E7FD030000FE07000001
:104FD000002200B5203200F010F8080000BD0022C9
:104FE00000B500F00CF8CA179A4200D100BDD843B2
:104FF0000121C907414000BD00220B150AD410B59C
:10500000944600F0A7F81414013400DA0021CB17FD
:10501000144C20470020002170476244343A0CD4DD
:105020000C2A07DA04009140904052422032D440CA
:10503000214310BDD843D94310BD203207D40C46BC
:105040009440524220321141D040204310BD08000C
:10505000C917203203D452422032104110BD18002B
:10506000190010BD1B5000104A00520D144BD21AEB
:1050700013DDFF2A1EDAD205CB0FDB071A43C3006C
:10508000400F0903490A084310435B0001D301D0D4
:10509000013070474308FBD2704702D0C80FC007E9
:1050A00070470A0312130132F8D1420F072AF5D1D3
:1050B000012200E0FF22C80F00028018C0057047DF
:1050C0008003000000210A00002104E000210A0002
:1050D000C11704E00022002306E0C0460022CB17DF
:1050E00058405940C01A994130B5184CA21A0029AD
:1050F00003D1010010D00020203A4C1512D104D267
:10510000013A001849414C0DFAD3114CA24204D285
:1051100012058918DB07C91830BDD243520D002093
:105120000021F5E703D4013A00184941FBD50B32C1
:105130004405C00A4D052843C90A640003D0002471
:1051400060416141E1E7E0D34408F8E73204000040
:10515000FE0700000A0DCC0F531E1B05C91A52058D
:1051600003D3C943404200D30131520D03D0531C35
:10517000DB0A07D0121B00206400611C890789121A
:10518000803A1203014BD21A70470000FF0300005F
:1051900051434343C9188C46110C83B24B4310B49E
:1051A000040C614392B280B2504362431C041B0C56
:1051B000001910BC59411304120CC018514161442C
:1051C0007047000048404140484000239C46114B36
:1051D0005B68184700239C460E4B1B6818470E4A15
:1051E000936F9B0804D200239C460A4BDB68184748
:1051F000F0B5146E556E576F166FFFF7F4FF064A41
:105200001466556657671667F0BD00239C46014B30
:105210009B681847B0750020000000D007B54840D3
:105220004140484001E0C04607B54200120E03D09D
:10523000FF2A03D1420218D8C00DC0054A00120E41
:1052400003D0FF2A03D14A020FD8C90DC905012294
:10525000414005D4414001D5814207BD884207BD88
:105260000143491801D0C043001807BD00B5FFF73E
:10527000DBFF01D0002000BD012000BD00B5FFF71D
:10528000D3FF804100BDC04600B5FFF7CDFF01D977
:10529000002000BD012000BD00B5FFF7BFFF01D910
:1052A000002000BD012000BD01231B064200D218D2
:1052B00004D84A00D21801D8002070470120704756
:1052C000491A002808D1084670470000C10FC907D5
:1052D00000D54042002817D0F44603B40B4B1B689E
:1052E000984706BC81409E384042803107D20B0669
:1052F00007D04900490AC005104308436047013000
:10530000F8E7490A8902F5E770470000AC7500200C
:10531000034BDB6FFC4618477CDF55540010000040
:10532000B075002070B513231E782A48FEF7D8FF09
:105330000500012E11D0012E09DDAB1E1B789B004C
:105340007F2B40DD24488022290000F0D1F823483B
:10535000FEF7BEFF224B186070BD1F485422290083
:1053600000F0C6F81F4B1A881F4B9A421CD1A72386
:105370009B011A881D4B9A4216D11D4B1A881D4B52
:105380009A4211D11C4B1A8894239B019A420BD14B
:105390001A4B1A881A4B9A4206D11A4B1A681A4BA2
:1053A0009A4201D1152307E01848FDF773FE184C07
:1053B000094A99008C5001331F2BF8D9144B064A27
:1053C0001362D361B7E7134B134A14484221FDF728
:1053D000C9FDC04653460000B07500204C330000A4
:1053E000AC750020EE290000C40F0000C20D0000C3
:1053F000962B0000C0B50000182B0000CC2A00003E
:1054000010B50000FC2C000051ED87642425051028
:1054100021540010D4EE041050EF041008EF0410D3
:1054200007B56046002800D100BE01880A0A023094
:10543000DF2AFAD1C9B2820804D302884088000466
:10544000104300E00068024A5050039007BD00007E
:10545000B0750020C30FDB0741000A0E07D0FF2AFA
:1054600008D00909054A89181943400770471900EF
:10547000002070470249C918FAE700000000003810
:105480000000F07F10B5002804D04018034B98426C
:1054900000D810BD0248FDF7FDFDC0460000042005
:1054A00064EF041070B5050037F0BCFF040029005C
:1054B000FFF7E8FF200070BD70B50D0038F0B8FAB6
:1054C00004002900FFF7DEFF200070BD10B537F0A3
:1054D000B3FF10BD01480421014B1847801C002078
:1054E000F1420010014B1B6818470000801C00208F
:1054F000014B5B6818470000801C002010B5FFF7C7
:10550000D1FF10BD10B5FFF7CDFF10BD10B5FFF7EF
:10551000DDFF10BD10B5FFF7D9FF10BD10B5FFF7C7
:10552000D5FF10BD084B5B6A994209D8064A926ABA
:10553000824207D2994201D0012002E0002000E01F
:10554000002070470120FCE70040054010B5030033
:10555000080011001B68984710BD0000F8B507004F
:105560000D001600437D002B02D0002400200CE02B
:1055700003681100280098472DE03B7D10E03B6850
:10558000154802219847601C0134B44214DA002CFB
:10559000F3DD2B19013B1B780D3B5A425341DBB223
:1055A0002A5D0A2AF0D1002BEED1A042E7DA3B684F
:1055B000211A28189847E2E7B04203DA3B68311A0B
:1055C00028189847002E06DDAD19013D2B780D3BBC
:1055D0005A4253413B75F8BDDCEF041070B505002D
:1055E0000368002B16D00C4B1C6805E0290004C989
:1055F0002000FFF7B3FF2469002C09D02368002B9B
:10560000F9D0064B1B68002BF0D0A342F3D1EDE795
:1056100000232B6070BDC046484E0020544E002031
:1056200070B505000C000B68802B05D023685A1C50
:105630002260E418257170BD0800FFF7CFFFF5E781
:1056400010B5002B02DB0260436010BD024B034A21
:1056500003483F21FDF786FCA8E30410E0EF0410A7
:10566000C4E3041010B582B00400FCF7A1FF0200EF
:105670000B006846FFF7E4FF009A019B226063601D
:10568000200002B010BD000070B582B0060014000A
:105690001D00FA229200002306980021FFF778FDF2
:1056A00002000B0012196B41002B09DB6846FFF763
:1056B000C7FF009A019B32607360300002B070BD7A
:1056C00001225242004BF1E7FFFFFF7F30B585B06A
:1056D00004000D0002A8FFF7C5FF029A039B009586
:1056E0002000FFF7D1FF200005B030BDF8B5CE4651
:1056F000474680B507000E00914698461BE0A36818
:10570000002B04D0310038009847002818DC2469A9
:10571000002C06D00C4D2D68002DF0D0A542F6D1FE
:10572000EDE748464146FFF7FDFE002806D101207F
:105730000021FCF75DFF054B1C68E9E701204042B2
:10574000C0BCB946B046F8BD544E0020484E0020BB
:1057500000B583B0FA2189006846FFF7B7FF009AC9
:10576000019B024848F038FB03B000BD342D0020F7
:1057700010B5024848F0A8FA10BDC046342D0020EC
:10578000F0B5CE46474680B583B006000D00904682
:105790001C00FFF7DDFF81466B1C05D0002C08D0F4
:1057A000194F1A4B1C6807E030003EF06DFA0500F7
:1057B000F4E7174FF5E72469002C17D02368002B76
:1057C000F9D0144B1B68002B01D0A342F3D12A005F
:1057D00031002000B8474346002BECD06B46D91D62
:1057E0000A230B7001222000B847E4E74B46002B48
:1057F00007D16B1E9D41E8B203B0C0BCB946B046AC
:10580000F0BDFFF7B5FFF4E74D550010484E0020FE
:105810005D550010544E002010B582B004006B4658
:10582000D81D0470002300220121FFF7A9FF2000EA
:1058300002B010BD10B5030008001100002B05D107
:10584000044B1A685B68FFF751FF10BD012040420E
:10585000FBE7C04600E8041010B503000800140080
:10586000013B012B06D8002300222100FFF788FF0F
:10587000200010BD01204042FBE70120404270475C
:105880000120404270470120404270470300002041
:1058900002229A4240417047094A01E010331A003F
:1058A0001368002B08D08342F8D1002907D103697F
:1058B00013600023036102E0002900D010607047EC
:1058C000484E002010B5064B1C6801E0984724693B
:1058D000002C03D06368002BF8D1F8E710BDC04658
:1058E000484E002070B505003EF0CEF904000023BC
:1058F000012201002800FFF743FFFFF7E3FF20002C
:1059000070BD000070B5A2B004000E00FFF720FFCC
:105910000500002301930A483300220001A9FEF785
:10592000BFFC040001A8FFF759FEFFF7CBFF002DD5
:1059300002D1200022B070BDFFF71AFFF9E7C04680
:10594000215600100FB400B583B004A901C901911C
:10595000FFF7D8FF03B008BC04B0184710B500F03B
:10596000ADF910BD70470000014B00221A7070475E
:105970002E7700204B79FF2B0CD18B79002B0BD18C
:10598000CB79012B0AD1082A0AD98A78054B1A70DB
:10599000092000E0002070470020FCE70020FAE723
:1059A0000020F8E72E7700200120704770B5040032
:1059B0000D000348FEF78CFC0300290020009847E7
:1059C0005542000010B5012926D1117953791B02E7
:1059D0000B43124909788B4201D000201DE0537817
:1059E000012B03D0022B10D0002016E09178D37841
:1059F0001B021943DB0506D54B0A012098407F2383
:105A00001940FFF7D3FF0020F9E7642200210020AE
:105A1000FDF74AFA012000E0012010BD2E7700209A
:105A20000123037000487047F8EF041010B50A789E
:105A30004B781B0213438A7812041A43CB781B0657
:105A400013439622D200934200D010BD00210800DB
:105A5000FFF7ACFF024B1860024B19607047C0465D
:105A6000A04D0020A44D002010B5002B02DB0260E9
:105A7000436010BD024B034A03483F21FDF772FA11
:105A8000A8E3041084F00410C4E3041010B582B03D
:105A90000400FCF78DFD02000B006846FFF7E4FFF1
:105AA000009A019B22606360200002B010BD0000DC
:105AB00070B582B0060014001D00FA229200002387
:105AC00006980021FFF764FB02000B0012196B41DE
:105AD000002B09DB6846FFF7C7FF009A019B326085
